:020000040800F2
:10000000000002201505000865050008C12200084F
:10001000650500086505000865050008000000008A
:10002000000000000000000000000000650500085E
:100030006505000800000000650500083D23000874
:1000400065050008650500086505000865050008E8
:1000500065050008650500086505000865050008D8
:1000600065050008650500086505000865050008C8
:1000700065050008650500086505000865050008B8
:100080006505000865050008E5210008650500080C
:100090006505000865050008650500086505000898
:1000A00029220008112200086505000865050008DE
:1000B0006505000865050008650500086505000878
:1000C0006505000865050008650500086505000868
:1000D000650500086505000851220008650500084F
:1000E0006D23000865050008650500086505000822
:1000F0006505000865050008650500086505000838
:100100006505000865050008650500086505000827
:100110006505000865050008650500086505000817
:100120006505000865050008650500086505000807
:1001300065050008000000000000000065050008DB
:1001400065050008650500086505000865050008E7
:1001500065050008650500086505000865050008D7
:1001600065050008650500086505000865050008C7
:100170006505000865050008650500080000000029
:1001800000000000650500080000000000000000FD
:10019000650500080000000000000000650500087B
:1001A00000000000000000000000000065050008DD
:1001B0006505000865050008650500086505000877
:0401C00065050008C9
:1001C40010B5054C237833B9044B13B10448AFF38D
:1001D40000800123237010BDA80600200000000049
:1001E4005471000808B5034B1BB103490348AFF32E
:1001F400008008BD00000000AC0600205471000817
:1002040053B94AB9002908BF00281CBF4FF0FF3179
:100214004FF0FF3000F07AB9ADF1080C6DE904CE6F
:1002240000F006F8DDF804E0DDE9022304B07047CD
:100234002DE9F0478C460D460446089E002B51D10B
:100244008A4217466DD9B2FA82FEBEF1000F0BD076
:10025400CEF1200C01FA0EF520FA0CFC02FA0EF78E
:100264004CEA050C00FA0EF44FEA174A250CBCFBC5
:10027400FAF81FFA87F90AFB18CC45EA0C4508FB83
:1002840009F3AB420AD9ED1908F1FF3280F023815A
:10029400AB4240F22081A8F102083D44ED1AA4B219
:1002A400B5FBFAF00AFB105544EA054400FB09F9D2
:1002B400A14509D9E41900F1FF3380F00A81A14571
:1002C40040F2078102383C44A4EB090440EA0840A8
:1002D4000021002E61D024FA0EF4002334607360F0
:1002E400BDE8F0878B4207D9002E54D0002186E860
:1002F40021000846BDE8F087B3FA83F1002940F0F5
:100304008E80AB4202D3824200F2FA80841A65EBFB
:1003140003050120AC46002E3FD086E81010BDE84E
:10032400F08712B90127B7FBF2F7B7FA87FEBEF1DF
:10033400000F34D1EB1B3A0C1FFA87FC0121B3FBED
:10034400F2F8250C02FB183345EA03450CFB08F3CD
:10035400AB4207D9ED1908F1FF3002D2AB4200F2EB
:10036400D1808046ED1AA3B2B5FBF2F002FB105522
:1003740043EA05440CFB00FCA44507D9E41900F149
:10038400FF3302D2A44500F2B8801846A4EB0C0453
:1003940040EA08409DE731463046BDE8F087CEF19B
:1003A400200405FA0EF307FA0EF720FA04F83A0CC3
:1003B40025FA04F448EA0308B4FBF2F14FEA1845BD
:1003C40002FB11441FFA87FC45EA044501FB0CF3C8
:1003D400AB4200FA0EF409D9ED1901F1FF3080F0B7
:1003E4008A80AB4240F2878002393D44EB1A1FFAFF
:1003F40088F5B3FBF2F002FB103345EA034500FB3A
:100404000CF3AB4207D9ED1900F1FF386FD2AB42C0
:100414006DD902383D44EB1A40EA01418FE7C1F13E
:10042400200722FA07F88B4005FA01F448EA03038F
:1004340020FA07FE4FEA134CFD404EEA040EB5FBCA
:10044400FCF94FEA1E440CFB19551FFA83F844EAE1
:10045400054509FB08F4AC4202FA01F200FA01FA7C
:1004640008D9ED1809F1FF3043D2AC4241D9A9F1C2
:1004740002091D442D1B1FFA8EFEB5FBFCF00CFB7C
:1004840010554EEA054400FB08F8A04507D9E418C6
:1004940000F1FF3529D2A04527D902381C4440EA8F
:1004A4000940A4EB0804A0FB02894C45C6464D460E
:1004B40015D312D056B1BAEB0E0364EB050404FA5B
:1004C40007F7CB401F43CC40376074600021BDE880
:1004D400F0871846F8E69046E0E6C245EAD2B8EB63
:1004E400020E69EB03050138E4E72846D7E74046E6
:1004F40091E78146BEE7014678E702383C4445E788
:10050400084608E7A8F102083D442BE7704700BFFE
:10051400DFF834D0002103E00C4B5B584350043126
:100524000B480C4B42189A42F6D30B4A02E00023C4
:1005340042F8043B094B9A42F9D302F01DFC06F041
:10054400DBFD00F05DF8704700000220F073000846
:1005540000000020A8060020A8060020E8090020CA
:10056400FEE70000F0B595B007A83422002106F09C
:10057400E7FD0024204A0094039402940494059413
:100584000694116C1D4B41F080511164126C02F001
:1005940080520092009A01941A6842F440421A6010
:1005A4001B6803F440430193012302254FF48001A7
:1005B4000422079307A8B4234FF480360E910F92B8
:1005C40010930896019F0D951195129513950F267A
:1005D40003F068F903F010F84FF4A0524FF480537D
:1005E40002A805210395049402960592069303F04C
:1005F40041F815B0F0BD00BF003802400070004063
:100604002DE980489DB0002402F002FCFFF7AAFF08
:10061400B64B0394159414941694179418941A6B67
:10062400B348B44DDFF8F0B242F004021A631A6B17
:1006340002F004020392039A04941A6B42F08002BB
:100644001A631A6B02F080020492049A05941A6BDE
:1006540042F001021A631B6B03F001030593224667
:100664004FF4E051059B02F0C3FF4FF40052A24B3C
:100674009F48149214A9012602274FF020091593CC
:10068400169402F0ADFE4FF4E05314A99848149365
:1006940015961697179702F0A3FE21464A4614A80A
:1006A40006F04EFD954AAC604FF4803385E80C00AB
:1006B4000193934BAB6228464FF400634FF0030859
:1006C400EB602E612C7685F82040EC62EF6185F8B2
:1006D40030406E610D940E940F94109402F0C4FB9C
:1006E40000224FF4801314A92846CDE91A23149448
:1006F400159616948DF865408DF864601794CDF8BE
:10070400608002F017FD0B2314A928461493159753
:1007140002F010FD0A2314A928461493CDF854803E
:1007240002F008FD0DA928464FF00C0A0D960E960E
:100734000F97109402F048FC28460DA90E971094C8
:10074400CDF834A002F040FC21464A4614A806F035
:10075400F7FC019BCBF80430694B6A4ACBF828308C
:1007640058464FF40063CBF80C30CBF80020CBF89C
:100774000840CBF810608BF818408BF82040CBF879
:100784002C40CBF81C608BF83040CBF814600D94EF
:100794000E940F94109402F067FB00224FF4801320
:1007A40014A95846CDE91A2314941596CDF86080FF
:1007B40016948DF865408DF86460179402F0BAFCC5
:1007C4000B2314A958461493159702F0B3FC0A237B
:1007D40014A958464C4D1493CDF8548002F0AAFC49
:1007E40058460DA90D940E960F9402F0EDFB4A465F
:1007F400214614A84FF4807B089406940D940E941B
:100804000F94109411941294139409940A940B94D1
:100814000C94079406F094FC3C49296040F6B832E5
:100824002846EA60C5F808906C606E61AC61C5F852
:1008340010B003F00DFA284603F0AEFA0623102296
:100844000DEB090128460893099203F04DFC06A913
:1008540028460694079403F0C3FC4FF0600C40F262
:10086400DC5322460DA92846CDF834C00E930F94CC
:10087400109411941294139403F030FB0DA90422E4
:10088400284603F02BFB0DA90822284603F026FB7B
:100894004FF0700C40F6A7230DA952462846CDF818
:1008A40034C00E9303F01AFB4FF4806E4FF4805261
:1008B4004FF4006314A92846CDF854E01493189219
:1008C400CDF858B0179419941B9403F0ABFC284648
:1008D40001F024FC0E4B0F49C3F814A018464FF442
:1008E400E13283E806009C6018E000BF0038024053
:1008F40000080240400700200000211000200140B1
:100904000100000F00210140880700200000014081
:10091400C807002000440040F8060020DC601C6189
:100924009C61DC6103F028FE01F0C8F922463946D7
:10093400122002F0F1FC122002F024FD224621468E
:10094400192002F0E9FC192002F01CFD32460421B2
:10095400182002F0E1FC182002F014FD3246414652
:10096400262002F0D9FC262002F00CFD2820224685
:10097400214602F0D1FC282002F004FDFEE700BF6E
:10098400014B186803F0C4BEEC080020014B186842
:1009940003F0C8BEEC080020014B186803F00ABF3E
:1009A400EC0800202DE9F04F6F4B704F704A3B600C
:1009B40089B00024049018466E4B6F4D05911C704D
:1009C400156004F095FD04F0D1F96C486C4EDFF825
:1009D400FC91DFF8FCB1DFF8FCA1DFF8FC81694D84
:1009E40005F058FC684804F029F9684A684B6649E0
:1009F40068481160336005F079FF644B654A1968F3
:100A0400306805F077FB644805F05EFE3B683168AA
:100A1400614A00936148624B06F07AFA614804F037
:100A24000DF9484604F00AF95F4B604A5D491160CC
:100A34001846CBF80090CAF8003005F009FA5C4B70
:100A4400DAF80020C3F810215A4AC3F80C51404682
:100A5400136004F0A3F8584B584A594913601846D8
:100A6400C1F8008005F052FA504B2C6018686C6095
:100A74002146EC602C61C5F81640C5F81A40C5F84B
:100A84001E4004F0EFF82146DBF80000DFF84C814B
:100A940004F0E8F8306805F045FB4FF001093868C8
:100AA40004F09EFA85F82490306805F0DFFB0346D5
:100AB400C0F30F422B826A82306805F0D7FB4149AC
:100AC4003268C8F800104FEA104E2B46A5F814E01F
:100AD40008462A4903F0EEFD3068D8F8005005F0C6
:100AE400B3FB22460146284603F0F0FDD8F8002067
:100AF400039232682F4E254DD6F800C0049E324B27
:100B0400D5F800E03968294D2D4FDBF800002D6839
:100B1400D7F800B0DAF80070B046039EC8F8006059
:100B24005A621E4A5A611B4A9A611B4A1A62134A44
:100B3400C3F800E05D6098601961C3F82CB01F63CE
:100B4400C3F83CC0DC60DC619A625C639C631C6437
:100B54005C649C64DC64059A1360064B83F8009023
:100B640009B0BDE8F08F00BF4C020020240800202B
:100B7400B0080020DC06002000000020D40800207B
:100B8400E8080020380800200C0100202808002074
:100B9400CC040020AC030020280500202003002002
:100BA40098030020E0000020F80200202C08002018
:100BB40038010020E0080020E0020020DC080020CA
:100BC40020080020B808002060080020B40000209D
:100BD400E4080020B40800200005002030080020AC
:100BE4002DE9F047AA4C237882B013B902B0BDE8CE
:100BF400F087012B04D001F001FC02B0BDE8F087BE
:100C0400A44E328892B2002A60D03288A24FA34DFB
:100C1400013A92B232803A8892B21AB13A88013AD1
:100C240092B23A802A8892B21AB12A88013A92B2D0
:100C34002A80012BDFD19A4B9A4D186803F0BEFF2E
:100C44000446286804F0F6F9974B04F00E040443B4
:100C5400186805F01BF9A4B200F00E012143CA4341
:100C640092B2924805F0A2FB904805F0B9FB0A281D
:100C740007D00B2802D1286804F0B2F901F024F956
:100C8400B9E7286804F0ACF9894B8A4A0024106853
:100C94001C6021465C60DC601C61C3F81640C3F82C
:100CA4001A40C3F81E4003F0DDFF834B2146186849
:100CB40003F0D8FF814B186805F034FA286804F073
:100CC4008FF97F4B186803F039FFD7E702A97D48F5
:100CD40021F8082D05F054FFDFF8E4810546D8F823
:100CE400000004F00DF8714805F07AFB0338102871
:100CF40040D8DFE810F0EF00FC00AD003F017600C3
:100D04006E005F003F003F003F003F003F003F0098
:100D140050004200220011006B4806F07FF90028C1
:100D240040F042810246102160485B4F5B4D05F064
:100D34003DFB0122237832806DE7DFF880915C4D22
:100D44006249D9F80000012385F8243005F0E6F95A
:100D54005F4B186803F034FD01465B4806F016F952
:100D6400584805F0E5FF0421504805F099FA002899
:100D740040F04B81484F494DDBE74A4B012118684D
:100D840004F030F90028F5D012214848424F434D71
:100D940005F086FACDE7404F398889B20029EAD1B7
:100DA400404B3E4D186804F01DF911213F4805F0F1
:100DB40077FABEE7414B45491868374F374D05F080
:100DC400ADF9424805F096FC0021384805F068FA70
:100DD400AFE7324D2B889BB2002B00F006812E4FDB
:100DE400A7E7DFF8C0A02D4DDAF800002A4F04F081
:100DF400AFFA2F4B2F4A4FF000091068C3F8009048
:100E0400C3F80490C3F80C90C3F81090C3F816907C
:100E1400C3F81A90C3F81E90494603F023FF264BEB
:100E24004946186803F01EFF244B186805F07AF948
:100E3400DAF8000004F0D4F8D8F8000003F07EFEDD
:100E44004FF44873082119482B8005F029FA70E7FC
:100E5400DFF86880164DD8F800001A4905F05EF9ED
:100E640095F824302BB9D8F8000005F0B9F9E883D7
:100E7400288206210D48084F084D05F011FAD8F8CC
:100E8400000005F0FFF9124B186803F057FC50E717
:100E9400DC060020E0060020DE060020E20600203A
:100EA4002008002024080020B4080020D4080020D2
:100EB400380800202C080020E4080020E80800205E
:100EC400E0080020AC0300202003002028050020B7
:100ED40030080020624B634F1868634D04F0D0F96A
:100EE4001423102161483B8005F0DAF921E76048BA
:100EF40006F094F800287ED1024610215B4805F0E4
:100F040055FA0DF102015B4805F058FCBDF90210D9
:100F1400594805F03DFF05460146564805F0D4FC06
:100F2400002D3FF427AF5448DFF85491DFF8648173
:100F34004C4F05F0A1F80146D9F8040003F0E8FC91
:100F44000546D8F80000019504F0E0FF2DB2B9F988
:100F54001010D8F80000002204F0FCFF2946D8F84D
:100F64000000414D192204F0F5FF13213F4805F01C
:100F740097F9DEE6414B424F186803F0DFFB97F820
:100F8400243053B1002D7FF4F5AE2A462021374892
:100F9400344F354D05F00AFACBE63A4B186805F0A4
:100FA4001FF9F8833882EDE701A9324805F006FC01
:100FB4000546304805F096FC15B900283FF4DAAE32
:100FC400314A2F4BD2F80080B3F91090254F264DAB
:100FD400404603F04BFE09FB00F1404603F042FE9D
:100FE4000521224805F05CF9A3E609211F481D4F9D
:100FF40005F056F99DE6234B186805F0F1F8204BEF
:10100400B3F9142018825A827BE7204BDFF850A0F2
:101014001868144F4FF00008C5F80080C5F8048024
:10102400C5F80C80C5F81080C5F81680C5F81A807C
:10103400C5F81E80414603F015FE154B0A4D18688D
:10104400414603F00FFED9F8000005F06BF8DAF81A
:10105400000003F0C5FFDAF8000004F035F968E693
:1010640024080020DE060020E2060020D408002028
:101074002003002028050020AC03002030080020B5
:1010840038080020E8080020280800202C08002048
:10109400E4080020DC080020A74B1B78012B00D0BB
:1010A40070472DE9F047A54C23889BB282B0BBB1B1
:1010B4002388A34EA34D013B9BB2238033889BB26C
:1010C4004BB92B889BB21BB12B88013B9BB22B8065
:1010D40002B0BDE8F0873388013B9BB23380F0E770
:1010E40002A9994821F8083D05F04AFD974F0546A5
:1010F400386803F005FE964805F072F903381028A5
:101104003FD8DFE810F0C700D400AB003901750008
:101114006D005E003E003E003E003E003E003E008C
:101124004F004100210011008A4805F077FF002894
:1011340040F03C81024610218548814E814D05F0E6
:1011440035F901232380B9E7DFF81C82824F8349F4
:10115400D8F80000012387F8243004F0DFFF804B27
:10116400186803F02DFB01467A4805F00FFF764816
:1011740005F0DEFD0421764805F092F8002840F0E1
:1011840045816F4E6F4DDCE7764B0121186803F003
:1011940029FF0028F5D012216D48694E694D05F0EC
:1011A4007FF8CEE7664E318889B20029EAD16D4BCB
:1011B400644D186803F016FF1121654805F070F8B6
:1011C400BFE7694B654918685D4E5E4D04F0A6FFA4
:1011D400624805F08FFA00215D4805F061F8B0E738
:1011E400584D2B889BB2002B00F00081544EA8E789
:1011F400DFF87091534DD9F80000514E04F0A8F86F
:10120400554B5A4A4FF000081068C3F80080C3F8E1
:101214000480C3F80C80C3F81080C3F81680C3F8A8
:101224001A80C3F81E80414603F01CFD504B414612
:10123400186803F017FD4C4B186804F073FFD9F8D5
:10124400000003F0CDFE386803F078FC4FF44873D7
:1012540008213F482B8005F023F872E7424F3E4DAA
:101264003868394904F05AFF95F8243023B93868AE
:1012740004F0B6FFE883288206213548304E314D0C
:1012840005F00EF8386804F0FDFF354B186803F0DC
:1012940055FA56E7334B2A4E18682A4D03F0F0FFEF
:1012A400142310212A48338004F0FAFF49E729481F
:1012B40005F0B4FE002840F09F8002461021244827
:1012C40005F074F80DF10201244805F077FABDF930
:1012D40002101D4805F05CFD054601461F4805F057
:1012E400F3FA002D3FF44DAF1748DFF86C90DFF8A8
:1012F4008480134E134D04F0BFFE0146D9F8040058
:1013040003F006FB0746D8F80000019704F0FEFD41
:101314003FB2B9F91010D8F80000002204F01AFE08
:101324003946D8F80000192204F014FE13210848A5
:1013340004F0B6FF05E700BFDC060020E00600204D
:10134400DE060020E2060020AC030020E0080020B6
:10135400D40800202003002038080020280500209D
:101364003008002024080020E80800202C08002071
:10137400E4080020DC0800203A4B3B4E186803F0D8
:10138400DDF996F8243053B1002D7FF4FAAE2A46E5
:1013940020213648364E374D05F008F8D1E6364B55
:1013A400186804F01DFFF0833082EDE701A933488B
:1013B40005F004FA0546314805F094FA15B90028F9
:1013C4003FF4DFAE2E4A284B1768B3F91080284E3D
:1013D400284D384603F04AFC08FB00F1384603F078
:1013E40041FC0521214804F05BFFAAE609211F48BE
:1013F4001F4E04F055FFA4E61F4B186804F0F0FEDE
:10140400194BB3F9142018825A825BE71D4BDFF89D
:101414007CA01868164E174D4FF000094946C7F8CE
:101424000090C7F80490C7F80C90C7F81090C7F85C
:101434001690C7F81A90C7F81E9003F013FC124BCD
:101444004946186803F00EFCD8F8000004F06AFE60
:10145400DAF8000003F0C4FDDAF8000003F034FF0A
:101464006FE600BF3008002038080020D4080020B0
:10147400DE060020E2060020E808002028050020FF
:10148400280800202C080020E4080020240800205C
:101494002DE9F0414C4B4D4C1B78D4F81A0088B020
:1014A400132B059000F08480494B4A4E18684A4F2C
:1014B40004F036FE04F0E0FD69460546306803F0AA
:1014C40087FC009803F0FEF92946019003F020FA06
:1014D400424BB4F91010029000B2091A186803F0D4
:1014E400CDFBBDF90A203E4BB4F912108046891A8F
:1014F400186803F0C3FB3B4AADF810800346ADF80F
:101504001230106823830499A4F8168003F06CF851
:10151400294603F071FA034601463068039303F049
:1015240059FC014600982060019860600298E060D0
:10153400012903982584C4F81A0031D02A4805F0FB
:10154400A5FD2A4B044638680690186803F044F851
:1015540005A9ADF81C00264805F02AFA244805F030
:10156400B7FBCCB1184804F03BFF031FDBB2012BDF
:1015740005D9132803D0002008B0BDE8F0811C4829
:1015840004F07AFD08A921F8140D1A4805F0C8F8EA
:10159400002008B0BDE8F081154805F09DFCE1E7A6
:1015A4000022094804F002FF002008B0BDE8F081E1
:1015B400114D286804F05AFD00287FF475AF28689F
:1015C40004F0ACFC20826FE7D40800203808002027
:1015D400E8080020240800203C0800202C080020F3
:1015E400E4080020B008002020030020B4080020F4
:1015F400AC03002028050020DC08002008B5054BBA
:10160400186803F0A5FE002280210348BDE80840C5
:1016140004F0CCBE24080020D408002070B4354A5D
:10162400354BD3614FF48071D1618DB0D361D369EF
:101634000B934FF400714FF481330B98D361D16154
:10164400D361D3690A930A992C4BD3614021D161A8
:10165400D361D36909934FF482314FF48060099BBD
:10166400D161D061D161264BD46908944FF480557F
:101674004FF48834089EDC61DD61DC61DC69079429
:101684004FF400654FF48434079EDC61DD61DC6156
:10169400DC690694069CD961D861D961D969059140
:1016A40005981849D1610220D061D161D4690494AC
:1016B400049D154CDC610425DD61DC61DC69039467
:1016C400039CD961D861D961D969029101204FF095
:1016D4000111029CD161D061D161D2690192019A58
:1016E400D961D861D961DB690093009B0DB070BCEE
:1016F400704700BF000002400001010040000100EB
:1017040000080240020001000400010010B5436A11
:10171400044680699847802384F8B030A069236A1E
:10172400BDE81040184700BF2DE9F04116464A09AC
:101734008CB00C469846054611D10C2C00F21E8242
:10174400DFE814F0FC012B00B3003F011C021C0273
:101754004A0174018701B801D901EF01FF01571E45
:101764003A46002100F08EFE60B90CAC0B2304F85D
:10177400223D2246A869EC690123FF21A0470CB051
:10178400BDE8F081D5F8AC0004F01F040028D4D0E3
:101794003A46002100F076FECFE7317805238DF834
:1017A4000E307E2900F23E82DFE811F02F023C0267
:1017B4003C022A023C0222022202220222022202C9
:1017C4002202220222022202220222021402140211
:1017D4003C023C02220222022202220222023C0297
:1017E4003C023C02B201B2013C023C023C023C021B
:1017F4003C023C023C023C023C023C023C023C02F5
:101804003C023C023C023C023C023C023C023C02E4
:101814003C023C023C023C023C023C023C023C02D4
:101824003C023C023C023C023C023C023C022202DE
:101834003C023C023C023C021402140214023C022C
:101844003C023C023C023C023C0222023C023C02BE
:101854003C0222022202220222022202220222024A
:101864003C0214023C023C023C023C023C022202C6
:101874003C023C02220222023C023C023C023C02A8
:101884003C023C023C023C023C023C023C023C0264
:101894003C023C022A02140214021402140214022E
:1018A4003C023C023C0214021402317803238DF8FA
:1018B4000E30822900F24281DFE811F07F017201CB
:1018C4007F017F01720165016501650165016501A3
:1018D40065016501650165016501650165016501D4
:1018E40065016501650165016501650165016501C4
:1018F40065016501400140017201650165016501F1
:101904007F0140014001400140014001400140018C
:1019140040014001400140014001400140014001BB
:1019240040014001400140014001400140014001AB
:101934004001400140014001400140014001650176
:1019440040014001400140017201720172016501D0
:101954006501650165017F0172016501650165012C
:101964006501650165016501650165016501650143
:101974007F01720140016501650165016501650131
:1019840040014001650165017F017F01720172011F
:101994007201720172017F016501650172014001EA
:1019A400650165017F0172017201720172017201A8
:1019B4007201720172017201720172017F014001B0
:1019C4007F01072331788DF80E30284601F03EF967
:1019D400002800F0B3809BE004AC002120462022C4
:1019E40005F0AEFBD5F8A8600DF11200711E0023BE
:1019F40005E001331D2B00F8012F00F0188111F8C8
:101A0400012F092AF5D1591DDA1D0933715C8DF8AE
:101A14001010B25C8DF81120F35C8DF81230224660
:101A2400A869EC692023F021A04771E07778337826
:101A34007079B4783279F17803EB072303EB04432C
:101A440002EB002203EB016192B2284601F03AF95D
:101A5400BEE70DF10E043178009403AB0DF10A02D8
:101A6400284601F041F9BDF90C30BDF80A00BDF972
:101A74000E108DF8141003EB43035B0000221E12BA
:101A840063F3070266F30F221E1466F317421B1654
:101A940063F31F620912030A04928DF815108DF87E
:101AA40016008DF81730EE69A869082304AAF021FE
:101AB400B0475EE6B4787378F078317996F806E04A
:101AC400604A377A03EB042303EB00437079F4791B
:101AD40003EB016300EB0E20317882FB0362A2EB7F
:101AE400E37300B204EB072200901BB292B22846C3
:101AF40001F016F96CE7F078B2787378317802EB7C
:101B0400002201EB032112B209B2284601F022F9A6
:101B140000231A46EC69A869F021A0470CB0BDE87F
:101B2400F081494C04960C23214604A88DF81480B6
:101B34008DF80E3001F01EF900287CD10DF10E0451
:101B440017E6D5F8A82004AC013A23460CAE04E00D
:101B540003F8011B9E423FF462AF12F8011F181BE9
:101B6400C0B20029F4D11F283FF659AFC0F11F02BB
:101B7400D2B20132204405F0E3FA50E70CAC012361
:101B840004F8223DF5E5284600F0EEFD049001300E
:101B9400D4D0EC69A869022304AAF021A047EEE599
:101BA400284600F0E1FD04900130C7D0EC69A86933
:101BB400042304AAF021A047E1E5284600F0D4FD5F
:101BC40004900130BAD0EC69A869012304AAF02179
:101BD400A047D4E5B4787378F078327903EB042322
:101BE40003EB004303EB0262284600F04BFCEFE6F4
:101BF400B2787378284603EB022200F043FCE7E650
:101C04007278284600F03EFCE2E67478D5F8AC0021
:101C14002246002100F036FC22460021284600F02E
:101C240031FCD5E60CAC022304F8223DA1E52623C1
:101C340024222221EAE6EE69A86923792268F021A8
:101C4400B0479CE5ABAAAA2AE406002010B5436A73
:101C5400044680699847802384F8B030A069236AD9
:101C6400BDE81040184700BFF0B583B004461E46D7
:101C7400099B81610E4DC4F8AC300A9BC4F8A830AE
:101C840008461746214600950A4B089D0A4A02F069
:101C9400F3FCA069E76126626562A847802384F8A3
:101CA400B030A069236A03B0BDE8F040184700BF14
:101CB400511C00082D1700081117000830B583B017
:101CC40001F072FD0B4B0C4D0C4CA3FB0030C00912
:101CD40001F066FB29462046FEF764FEFFF79EFCF2
:101CE400074B009322462B460121064800F044FB93
:101CF40003B030BDD34D6210F0080020EC08002082
:101D0400A071000894060020F0B5504902790B68D0
:101D14001D790446002B14BFFF20002095426FD08C
:101D24004B68002B00F084801D7995426ED08B683F
:101D3400002B00F082801D7995426DD0CB68002B7A
:101D44007FD01D7995426DD003284FD823689D68B4
:101D54003F4E41F82040002146F83010E90711D4E5
:101D640059686FF0020521F0200159601D6059681F
:101D74006FF0040521F0800159601D60996841F0FD
:101D840001019960D96A092A21F47001D9622FD816
:101D940002EB420142F0007242EA01524FF0007736
:101DA40097FAA7F7B7FA87F102F00077CF400C3320
:101DB40002F0F87253F827504FF0F87191FAA1F637
:101DC400B6FA86F691FAA1F14FF0070EA468B1FABB
:101DD40081F122FA06F60EFA06F6CA4004FA02F176
:101DE40025EA06020A4343F82720F0BDFF20F0BD90
:101DF40003216FF01D0511FB025142EA0152CDE7A8
:101E04001D682368AB428BD10020A0E71D682368BE
:101E14009D428CD101209AE71D6823689D428DD193
:101E2400022094E71D6823689D428DD103208EE72C
:101E3400042894BF0020012076E7052828BF02204B
:101E440079E7052828BF03207BE700BF1C09002091
:101E5400F808002030B41B4B53F820201379126883
:101E6400092B27D803EB430143F0007343EA0153E2
:101E74004FF4407191FAA1F14FF40075B1FA81F178
:101E8400CD4002F12C0403F01F0354F8250020F088
:101E94001F000343510144F8253001F1844101231B
:101EA400D06CC1F8783113689B07FCD5D06C30BC7A
:101EB40080B2704703216FF01D0011FB030143EA58
:101EC4000153D5E71C090020F0B4274C2378012BDB
:101ED40001D0F0BC7047254A254B107853F82020D8
:101EE40013791268092B36D803EB430143F00073CE
:101EF40043EA01534FF4407191FAA1F14FF4007792
:101F0400B1FA81F1CF4002F12C0603F01F0356F819
:101F1400275025F01F052B43510146F8273001F1C6
:101F240084410123D56CC1F8783113689B07FCD533
:101F3400104BD16C104E53F8305089B202223180CC
:101F44002270002DC5D003EBC00300265A6826700A
:101F54002B46F0BC184703216FF01D0511FB0351FC
:101F640043EA0153C6E700BF18090020F408002023
:101F74001C090020F80800202C09002000B583B0BB
:101F84000D4B002100915A6C42F480425A645A6C01
:101F940002F480420092009A01911A6C42F080523D
:101FA4001A641B6C03F0805301930420019B01F01D
:101FB400A1F903B05DF804FB0038024030B50368B2
:101FC400364A8DB0002493420894079409940A94E5
:101FD4000B9433D0324A934201D00DB030BD314B13
:101FE40004945A6C304842F400725A645A6C02F4F5
:101FF40000720492049A05941A6B42F004021A6364
:102004001A6B02F004020592059A06941A6B42F0C8
:1020140001021A631B6B03F001030325069307A94E
:10202400069B0795089501F0DBF9012307A91F48D2
:1020340008950994079301F0D3F9CEE7194B01945D
:102044005A6C194842F480725A645A6C02F48072D1
:102054000192019A02941A6B42F004021A631A6BF9
:1020640002F004020292029A03941A6B42F00102F3
:102074001A631B6B03F0010303930325072307A9CA
:10208400039A0793089501F0ABF907A90748079548
:102094000895099401F0A4F99FE700BF00200140CE
:1020A40000210140003802400008024000000240C4
:1020B40030B50168174A89B0002391420493039311
:1020C40005930693079301D009B030BD02F59C3205
:1020D4000193516C104841F001015164516C01F0BD
:1020E4000101019101990293136B43F001031363FE
:1020F400136B03F0010302930222012303A940247A
:10210400029D039404920593079301F069F909B0C1
:1021140030BD00BF000001400000024030B501683E
:10212400134A87B0002391420293019303930493CB
:10213400059301D007B030BD02F59C320093136BB8
:102144000C4843F001031363136B03F00103009382
:102154000122022301A94FF4E064009D019402933B
:1021640003930493059201F03BF907B030BD00BF1F
:10217400000001400000024030B50168164A89B0F1
:10218400002391420493039305930693079301D08C
:1021940009B030BD02F5FA320193116C0F4841F4D5
:1021A40000311164116C01F4003101910199029321
:1021B400136B43F001031363136B03F001030293E6
:1021C4000222072303A90C24029D0394049207937B
:1021D40001F006F909B030BD00440040000002409F
:1021E400084B1A68520706D4074A136823F00C03F5
:1021F4001360FFF74DB91A6822F00C021A60FFF75A
:1022040047B900BF00200140002201400448D0F833
:1022140090309B686FF001021A6103F077BC00BF35
:102224004C020020084808B5D0F890309B681A6921
:10223400120604D56FF080021A6103F0AFFCBDE80A
:102244000840FEF729BF00BF4C02002010B51A4C0D
:10225400D4F820311A68910682B018D41A6812078B
:1022640007D41B681B0602D5134804F03BF902B0DF
:1022740010BD00F0E5F8104804F066F9D4F82031F8
:102284001A680192019A5A680192019AE9E7596819
:102294002046C9B204F0BAF80388012B04D0022BFB
:1022A40007D0D4F82031D9E700F0D0F8D4F82031A1
:1022B400D4E700F0C5F8F4E75805002030B583B042
:1022C4001C4CFFF79BF92546D4F8203105E01A6829
:1022D400110617D41A6892061CD41A681007F6D58A
:1022E400284604F031F9D4F820311A680192019A91
:1022F4005B680193019B00F0A3F8D4F820311A68BD
:102304001106E7D5284604F0EDF8D4F820311A6810
:102314009206E2D559682846C9B204F077F80388D2
:10232400012B04D0022BCFD100F08AF8CCE700F0C7
:102334008DF8C9E75805002010B50A4C2378022B04
:1023440006D00133DBB22370BDE81040FEF748BC71
:1023540000F078FD01F040F801232370BDE810403F
:10236400FEF73EBC98060020024B4FF400525A611F
:1023740000F072B8003C01402DE9F04F174DDFF832
:1023840078E0174E82460F46904699460FCD744624
:102394000FC495E8030085B0124DDDF838B0C5F8D8
:1023A40000E084E80300304604F02EF80E4B0F4A98
:1023B4001B682868CDF808B08DE80C0031460C4B3A
:1023C4000C4AFFF751FC2868CDF838A04B4642462A
:1023D400394605B0BDE8F04F00F04AB8C406002005
:1023E40058050020F4060020F0060020C566000809
:1023F40085650008A9650008300900200D4A138886
:102404009BB21BB11388013B9BB213800A4A138809
:102414009BB2012B03D91388013B9BB21380074A5B
:1024240013889BB2012B03D91388013B9BB2138001
:10243400704700BFEE060020EC0600209A0600203C
:10244400014B00221A807047EC060020014B4F22FA
:102454001A807047EC06002008B5FEF79DFA18B103
:10246400BDE80840FEF792BABDE80840FEF788BA16
:1024740030B4029C04610025057501718260C3605B
:1024840030BC704770B51446037DC568826855F842
:10249400235052F8236082B05B296FD8DFE811F033
:1024A40069006E006E0070006E007A008000860085
:1024B4008C0098009E00A400AA00B600BC00C200D4
:1024C400C800E2006E006E00FC0018016E006E0091
:1024D4006E006E006E006E006E006E006E006E0088
:1024E4006E006E006E006E006E006E006E006E0078
:1024F4006E006E006E006E006E006E006E006E0068
:102504006E006E006E006E006E006E006E006E0057
:102514006E006E006E006E006E006E006E006E0047
:102524006E0034016E006E006E006E006E006E0070
:102534006E006E006E006E006E006E006E006E0027
:102544006E006E006E006E006E006E006E006E0017
:102554006E006E006E005C00824981FB0431A1EBC9
:10256400E471304609B2002202F0B0F8012002B052
:1025740070BD0379E4B2A34200F2CC800020F6E7F8
:1025840014F0FF0400F0C980012C00F0E080012069
:1025940002B070BD286821B202F058FB0120E6E7C2
:1025A400286821B202F054FB0120E0E7286821B238
:1025B40002F05EFB0120DAE7304602F053F90190A5
:1025C400ADF804403046019902F094F80120CEE7BA
:1025D400686821B202F03AFB0120C8E7686821B2BA
:1025E40002F036FB0120C2E7686821B202F040FB2A
:1025F4000120BCE7304602F035F90190ADF8064001
:102604003046019902F076F80120B0E7A86821B2BB
:1026140002F01CFB0120AAE7A86821B202F018FB13
:102624000120A4E7A86821B202F022FB01209EE762
:10263400026952F823301A0F092AC3F303637ED0C8
:10264400092BA4D1EE69002EA1D001AA0DF102013B
:10265400304604F013FC21B23046BDF9042004F0E6
:1026640015FC94E7026952F823301A0F092AC3F3C0
:1026740003635CD0092B8AD1EE69002E87D001AAAE
:102684000DF10201304604F0F9FB22B23046BDF9E7
:10269400021004F0FBFB7AE7026952F823301A0FA8
:1026A400092AC3F303634ED0092B7FF470AFEE699C
:1026B400002E3FF46CAF01AA0DF10201304604F084
:1026C400E9FB22B23046BDF9021004F0F1FB5EE7EB
:1026D400026952F823301A0F092AC3F303632AD07C
:1026E400092B7FF454AFEE69002E3FF450AF01AADA
:1026F4000DF10201304604F0CDFB21B23046BDF9A4
:10270400042004F0D5FB42E7304621B202F0CAF8B7
:1027140001202CE70475012029E7304602F0BEF8B9
:1027240022460146304601F0D9FF01201FE7092B5C
:10273400AE69A2D1A0E7092BAE69D5D1D3E7092BA5
:10274400AE6980D17EE7092BAE69B1D1AFE73046DF
:1027540002F06CF800220146304601F0B7FF204633
:1027640005E700BFABAAAA2A30B5037DC568846813
:102774001AB291B055F8225054F82240812900F23F
:102784002182DFE811F0CB00C700C300BF00B8000E
:10279400B400B000AC008800A600A2009E00820035
:1027A400E400E000DC00C901FB011F021F02EA0192
:1027B400A9011F021F021F02A501D800D4001F0295
:1027C4001F02CD00BA01E5011F02E101DC019700FF
:1027D40092008D00BA01E50188008200C401BF01A6
:1027E400120222011F021F020F01FC00E8009201E5
:1027F4007E014F011F021F021F021F021F021F0240
:102804001F021F02480177018200630134011F0285
:102814001F021F021F021F021F021F021F021F02AC
:102824001F021F021F021F021F021F021F021F029C
:102834001F021F021F021F021F021F0227011F0285
:102844001F021F021F021F021F021F021F021F027C
:102854001F021F021F021F021F021F021F021F026C
:102864001F021B02170210021F020E029C001F020D
:102874001F021F021F021F021F021F021F021F024C
:102884001F021F021F021F02AA00204601F0EAFFD6
:10289400001411B030BD204601F0E4FF00B2F8E7A7
:1028A400204601F0CFFF0014F3E7204601F0CAFFF1
:1028B40000B2EEE7204601F0BDFF0014E9E7022074
:1028C400E7E7686802F0D6F9E3E7686802F0C6F95A
:1028D400DFE7686802F0BEF9DBE70020D9E7286883
:1028E40002F0C8F9D5E7286802F0B8F9D1E72868FA
:1028F40002F0B0F9CDE7204601F098FF00EB40006C
:102904004000C6E7204601F059FFC2E7A86A03F079
:1029140067FDBEE7A86A03F071FDBAE71846B8E799
:10292400204601F07BFF00EB40004000B1E7E86B7C
:1029340002F030F9ADE7E86A02F06AF9A9E7A8689D
:1029440002F098F9A5E7A86802F088F9A1E7A86859
:1029540002F080F99DE7036953F822301A0F092A1F
:10296400C3F3036300F03A81092B40F02B81E8693B
:10297400002800F0278104F06DFA00B289E70369AA
:1029840053F822301A0F092AC3F3036300F033818A
:10299400092B40F01781E869002800F0138103F047
:1029A4009FFB76E7036953F822301A0F092AC3F311
:1029B400036300F00E81092B40F00481E8690028CC
:1029C40000F0008103F058FB63E7204601F05CFF50
:1029D40000145EE7204601F0F1FE0128204600F0D5
:1029E400138101F023FF00EB4000400051E703692D
:1029F40053F822301A0F092AC3F3036300F0198134
:102A0400092B40F0DF80E869002800F0DB8004F047
:102A14006BFA00143DE7686A03F01AFC00EB40000F
:102A2400400036E7036953F822301A0F092AC3F32A
:102A3400036300F0EF80092B40F0C480E8690028AC
:102A440000F0C08004F0FAF9001422E7036953F897
:102A540022301A0F092AC3F3036300F0EF80092B15
:102A640040F0B080E869002800F0AC8004F038FA47
:102A740000140EE7686A03F0EDFB00EB4000400031
:102A840007E7036953F822301A0F092AC3F30363D3
:102A940000F0CA80092B40F09580E869002800F016
:102AA400918004F0CBF900B2F3E6036953F82230C5
:102AB4001A0F092AC3F3036300F0B180092B40F015
:102AC4008180E86900287DD004F0C4F90014E0E6B0
:102AD400286B01F083FDDCE6036953F822301A0FFA
:102AE400092AC3F303637ED0092B25D1E86918B3FF
:102AF4000FAA0EA904F0CEF91EE0204601F0AAFEAA
:102B040000B2C6E6204601F0B5FE0014C1E6204638
:102B140001F0B0FE00B2BCE6036953F822301A0F8C
:102B2400092AC3F303636BD0092B05D1E86918B1F3
:102B34000FAA0EA904F0A2F9BDF93800A9E62046AF
:102B440001F078FE00B2A4E6686904F0D1FAA0E6C8
:102B5400204601F07FFE00149BE6036953F82230FF
:102B64001A0F092AC3F303632FD0092B16D1E8697E
:102B7400A0B10FAA0EA904F08DF90FE0036953F870
:102B840022301A0F092AC3F3036330D0092B05D16D
:102B9400E86918B10FAA0EA904F070F9BDF93C0058
:102BA40077E6112075E6284873E6204601F06CFEAE
:102BB40000B26EE6286802F059F86AE6286802F066
:102BC40053F866E64FF0FF3063E6092BA869CFD1CE
:102BD400CDE7092BA8697FF4F2AEEFE6092BA869CB
:102BE4007FF4C6AEC3E6092BA86980D17EE7092B22
:102BF400A869CED1CCE7092BA8697FF4CDAECAE68B
:102C0400092BA86993D191E701F0FCFD00EB40008A
:102C140040003EE6092BA8697FF411AF0EE7092BAB
:102C2400A8697FF44FAF4CE7092BA8697FF436AF4E
:102C340033E7092BA8697FF4E7AEE4E6092BA8691A
:102C44007FF411AF0EE700BF7A84A63410B5836811
:102C5400027D013953F822400D292CD8DFE801F018
:102C64001712070C0C0E1C26212B2B2B2B12204683
:102C740001F0A0FD062820D0012010BD204601F05F
:102C840099FD20B1204601F04DFD012010BD2046E4
:102C940001F03EFD012010BD204601F047FD01205A
:102CA40010BD204601F002FE012010BD204601F0B7
:102CB40041FD012010BD002010BD204601F0AAFDF9
:102CC400012010BD10B5074B047D806883FB01E330
:102CD400A3EBE17150F8240009B201F0F7FC0120E4
:102CE40010BD00BFABAAAA2AF8B5047DC06850F88D
:102CF4002400446994B120461E4617460D4604F04C
:102D0400E1F929463880204604F0E2F9294630806A
:102D1400204604F0E5F9069B012418802046F8BDFE
:102D2400F8B51F46047DC368BDF9186053F8243014
:102D34005C690D46204604F0B3F93A46294620461C
:102D440004F0B4F920463246294604F0B5F90120CE
:102D5400F8BD00BF00B583B08368ADF80410017DF1
:102D6400ADF8062053F82100019901F0C3FC03B02B
:102D74005DF804FB002070471049114BD1F88820FE
:102D840042F4700210B4C1F888201A680D4C002077
:102D940042F001021A6098601A6822F0847222F4E8
:102DA40080321A605C601A684FF0006422F480225A
:102DB4001A60D8608C605DF8044B704700ED00E049
:102DC400003802401030002438B50E4A0E4B1278F9
:102DD4001B6805464FF47A70B0FBF2F0B3FBF0F0D9
:102DE40000F0DEFA08B90F2D01D9012038BD0446E0
:102DF400024629464FF0FF3000F08EFA034B20467E
:102E04001D6038BDA00600209C060020A4060020FA
:102E140008B50B4B1A6842F400721A601A6842F43F
:102E240080621A601A6842F480721A60032000F00B
:102E340061FA0420FFF7C8FFFFF7A0F8002008BDDF
:102E4400003C0240034A044B11681B780B44136096
:102E5400704700BFE4090020A0060020014B186859
:102E6400704700BFE4090020002800F0A680F8B5F0
:102E7400056C04463DB1236CDB060CD50023012010
:102E840084F83C30F8BDFFF799F86564236C84F846
:102E94003C50DB06F2D4226C49492368494D22F4A4
:102EA400885222F0020242F0020222644A6822F4AA
:102EB40040324A604A68606802434A60596820693F
:102EC400D4F808E0E768A26A21F4807159605E686A
:102ED40046EA00265E605E6826F040765E605868CA
:102EE40040EA0E005860986820F400609860996881
:102EF400AA4241EA0701996048D09968E06A21F042
:102F04007061996099680A439A60996821F0405108
:102F140099609A6802439A609968257E94F8200023
:102F240021F0020199609A6842EA45029A605A685F
:102F3400002834D122F400625A60DA6AE56994F810
:102F44003070666922F47002DA62D86A013D40EAA0
:102F54000550D862986820F400709860996841EA36
:102F640047219960996821F4806199609A680020EA
:102F740042EA86229A606064236C23F0030343F0E0
:102F840001032364002384F83C30F8BD9A6822F0DE
:102F940070629A609A6822F040529A60BCE742F4E8
:102FA4000062616A5A605A6822F460425A605A6840
:102FB400013942EA41325A60BFE70120704700BF3D
:102FC400002301400100000FF0B590F83C3083B0BD
:102FD4000022012B019255D00D680123092D80F8A0
:102FE4003C3028D804688B68226905EB450707261E
:102FF400BE4022EA060222612269BB4013432361D8
:103004004B68062B2E462BD803EB8303626B053BE0
:103014001F21994022EA01026263626B06FA03F3FC
:10302400134363633E4B9C423ED0002380F83C3004
:10303400184603B0F0BD04688B68E768AEB206EBCF
:1030440046021E3A4FF0070E0EFA02FE27EA0E075A
:10305400E760E76893403B43E3604B68062BD3D9B2
:103064000C2B12D803EB8303A3F123011F22236B40
:103074008A4023EA02032363236B06FA01F119430E
:103084002163CFE7022003B0F0BD03EB8302413A92
:10309400E36A1F21914023EA0103E362E36A06FA2B
:1030A40002F11943E162BDE7122D2BD01D4B9D4265
:1030B4000BD0112DB9D11C4B5A6822F480025A60EE
:1030C4005A6842F400025A60AFE7174A174B516836
:1030D400174C21F480015160516841F400015160A2
:1030E4001B68A4FB03239B0C03EB83035B0001938A
:1030F400019B002B99D0019B013B0193019B002B69
:10310400F9D192E7D3F8042322F40002C3F804238C
:10311400D3F8042342F48002C3F8042385E700BFF4
:103124000020014012000010002301409C060020F2
:1031340083DE1B4390F83C30012B00F08880F0B50F
:103144000D680123092D2C4680F83C306CD80368A7
:103154008A681E6905EB450E072707FA0EF726EA6B
:1031640007061E611E6902FA0EF232431A619F6B52
:10317400D1F810E04E6827F440179F639F6B0EF15F
:10318400FF3247EA0257F21CA2EB0E029F63D2B24F
:103194009F6B02EB82024FF01F0E0EFA02FE27EA2B
:1031A4000E079F63D3F838E08F6904FA02F24D4C9E
:1031B40042EA0E02A7429A636CD09C68D1F81CE0E4
:1031C40024F470249C609A6817439F609C6824F4DC
:1031D40040149C609A6842EA0E029A604A7D002A72
:1031E40048D05A6842F480625A600A7D002A30D07E
:1031F4005A68022E42F480525A6030D0032E52D0C4
:10320400012E3CD01A6AC96822F47F6222F00F02B0
:103214001A621A6A0A431A62334A93424ED000234E
:1032240080F83C301846F0BD03688A68DF68ACB2A9
:1032340004EB44061E3E4FF0070E0EFA06FE27EA84
:103244000E07DF60DF68B2403A43DA608FE702209E
:1032540070475A68022E22F480525A60CED19A697D
:10326400C96822F47F6222F00F029A619A690A43C4
:103274009A61D1E75A6822F480625A60B5E75A69C4
:10328400C96822F47F6222F00F025A615A690A4324
:103294005A61C1E79A6822F470229A609A6822F40B
:1032A40040129A609AE7DA69C96822F47F6222F0D0
:1032B4000F02DA61DA690A43DA61ADE7122D0AD046
:1032C4000A4B9D4201D0112DA9D1094A536843F4F8
:1032D40000035360A3E7D2F8043343F48003C2F835
:1032E40004339CE701000F0000200140120000108D
:1032F40000230140074AD3684FF6FF010B40000248
:1033040043F0BF6300F4E06043F400330343D3604D
:10331400704700BF00ED00E0184B70B4DC68C4F3E4
:103324000224C4F10706042E04F1040328BF042672
:10333400062B17D9033C0125A540013D2A40012352
:10334400B340013B1940A140002841EA02010CDBD3
:1033540000F1604000F561400901C9B280F8001332
:1033640070BC704700221446E9E7054B00F00F00DB
:1033740009010344C9B2197670BC704700ED00E03E
:10338400FCEC00E0002807DB00F01F0101234009EA
:10339400024A8B4042F82030704700BF00E100E051
:1033A4000138B0F1807F0ED2084B10B4084C58603D
:1033B400F02084F823000022072110469A60196047
:1033C4005DF8044B70470120704700BF10E000E037
:1033D40000ED00E0704700BF08B5FFF7FBFF08BD34
:1033E4002DE9F04FD1F800C0DFF8FC81DFF8FCE1F3
:1033F40083B0002503E00135102D00F093800123F4
:10340400AB4003EA0C029342F5D14E6826F0100A51
:10341400BAF1020F00F089804FEA45090324D0F87D
:1034240000B004FA09F4E44306F003070BEA040BC2
:1034340007FA09F70AF1FF3A47EA0B07BAF1010F55
:10344400076040F29880C7688B683C4003FA09F330
:103454002343C360F300CED54FF00009CDF80490A8
:10346400D8F8443043F48043C8F84430D8F8444092
:1034740025F0030303F1804304F4804403F59C33F3
:10348400019405F00304019FD3F808A0A4000F27BA
:10349400A7402AEA070A4E4FB8421AD007F58067B8
:1034A400B8427BD04B4FB8427DD04B4FB8427FD00F
:1034B4004A4FB84200F08180494FB84200F0828000
:1034C400484FB8420CBF4FF006094FF0070909FAFC
:1034D40004F94AEA09079F60DEF80030D443F70391
:1034E40054BF23401343CEF80030DEF80430B70352
:1034F40054BF23401343CEF80430DEF80830F702FB
:1035040054BF23401343CEF80830DEF80C30B60223
:1035140005F1010554BF23401343102DCEF80C30A0
:103524007FF46DAF03B0BDE8F08F4FEAD50900EB2F
:10353400890905F00707D9F82040BF004FF00F0BA9
:103544000BFA07FB24EA0B0A0C69BC4044EA0A04A0
:10355400C9F820404FEA45090324D0F800A004FA32
:1035640009F4E44306F0030704EA0A0A07FA09F730
:1035740047EA0A070760876807EA040ACF6807FA78
:1035840009F747EA0A078760D0F804A0C6F30017D2
:103594002AEA0303AF401F43476054E74FF0010991
:1035A40009FA04F995E74FF0020909FA04F990E7DA
:1035B4004FF0030909FA04F98BE74FF0040909FAFB
:1035C40004F986E74FF0050909FA04F981E700BF19
:1035D4000000024000080240000C024000100240BB
:1035E400001402400018024000380240003C014030
:1035F40002B909048161704730B583B0194B1A4987
:103604001A4C002201921A6C42F080521A641B6C0C
:1036140003F0805301930123019A0B60FFF71EFC12
:10362400054605E0FFF71AFC401BB0F57A7F16D873
:103634006368DA03F6D50E4B0C4C01221A60FFF7CF
:103644000DFC054605E0FFF709FC401BB0F57A7F49
:1036540005D863689B03F6D5002003B030BD032072
:1036640003B030BD0038024040000E4200700040FC
:1036740044000E4260B1484A136803F00F038B42C2
:1036840008D2CBB21370136803F00F03994201D030
:103694000120704703682DE9F0419D0714D55C07AC
:1036A40004D53E4CA26842F4E052A2601A0704D545
:1036B4003A4CA26842F46042A260384C8568A26821
:1036C40022F0F0022A43A260DF0704460D4622D509
:1036D4004268012A5BD0931E012B304B1B6850D9E2
:1036E400990725D52D4EB36823F003031343B36024
:1036F400FFF7B4FB41F28837804605E0FFF7AEFBE5
:10370400A0EB0800B8423FD8B368626803F00C032A
:10371400B3EB820FF2D1204A136803F00F039D42EA
:1037240009D2EBB21370136803F00F039D4202D069
:103734000120BDE8F08123685A0706D51749E068DF
:103744008A6822F4E05202438A601B0707D5134AB1
:103754002169936823F4604343EAC103936000F052
:1037640049F80E4B0E499B680E4AC3F30313CB5C16
:1037740020FA03F304201360FFF726FB0020BDE8C2
:10378400F0819801AED4D3E70320BDE8F081034B68
:103794001B689E03A6D4CBE7003C024000380240DD
:1037A400C07100089C060020014B1868704700BFD8
:1037B4009C060020044B054A9B680549C3F38223F9
:1037C4000868D35CD840704700380240D0710008C4
:1037D4009C060020044B054A9B680549C3F3423309
:1037E4000868D35CD840704700380240D0710008A4
:1037F4009C060020284908B58B6803F00C03082BAD
:1038040007D00C2B1DD0254A2548042B18BF104681
:1038140008BD4A684B6813F4800302F03F0230D1BC
:1038240049681E48C1F38811A1FB0001FCF7E8FCBC
:10383400194B5B68C3F3014301335B00B0FBF3F046
:1038440008BD4A684B6813F4800302F03F020ED1AE
:1038540049681248C1F38811A1FB0001FCF7D0FCB0
:103864000D4B5B68C3F30273B0FBF3F008BD4B6808
:103874000B48C3F38813A3FB00010023FCF7C0FC2F
:10388400EEE74B680648C3F38813A3FB000100234B
:10389400FCF7B6FCCCE700BF003802400024F4007B
:1038A40000127A002DE9F0410368DA0782B0044679
:1038B40036D5AA498A6802F00C02042A00F0D680A0
:1038C4008A6802F00C02082A00F0CC80A3498A68B6
:1038D40002F00C020C2A00F058816368B3F5803FB3
:1038E40000F00581B3F5A02F00F06B819B4D2A6891
:1038F40022F480322A602A6822F480222A60002B73
:1039040040F0FA80FFF7AAFA064605E0FFF7A6FAA8
:10391400801B642800F20E812B689903F6D4236877
:103924009A072FD58D4A916811F00C0F00F0AC80E6
:10393400916801F00C01082900F0A28087498A6887
:1039440002F00C020C2A00F07781E368002B00F0EF
:103954002181834B814D01221A60FFF77FFA0646CD
:1039640005E0FFF77BFA801B022800F2E3802B6856
:103974009807F6D52B68226923F0F80343EAC203BB
:103984002B6023681A0715D56369002B00F0878024
:10399400744B724D01221A60FFF760FA064605E087
:1039A400FFF75CFA801B022800F2C4806B6F9B0750
:1039B400F6D52368580720D4A369D3B1674DAA6804
:1039C40002F00C02082A66D0022B674B4FF000026B
:1039D4001A6000F00081FFF741FA2C46054605E025
:1039E400FFF73CFA401B022800F2A48023689B01E5
:1039F400F6D4002002B0BDE8F081584A136C13F0ED
:103A0400805368D00026594D2B68D90540F1828037
:103A1400A368012B00F0CF80052B00F08F804F4D61
:103A24002A6F22F001022A672A6F22F004022A6711
:103A3400002B40F08C80FFF711FA41F28837804662
:103A440005E0FFF70BFAA0EB0800B84272D82B6F21
:103A54009807F6D4002EAFD0404A136C23F080535D
:103A64001364A9E74A6857027FF530AF3B4A1268EE
:103A740095037FF555AF6268002A7FF451AF0AE0E1
:103A8400526857023FF55AAF344A1268950716D563
:103A9400E268012A13D0012002B0BDE8F081314A66
:103AA4002E4D1360FFF7DAF9064604E0FFF7D6F966
:103AB400801B02283ED86B6F9F07F7D479E727490C
:103AC40020690A6822F0F80242EAC0020A601A0772
:103AD4007FF570AF58E70193136C43F08053136480
:103AE400136C03F080530193019B01268BE71B4A5F
:103AF400136843F480331360FFF7B0F9174D06469B
:103B040004E0FFF7ABF9801B642813D82B689803F3
:103B1400F7D504E72B6843F480732B60FFF79EF915
:103B240007462B68DA053FF573AFFFF797F9C01B1B
:103B34000228F6D9032002B0BDE8F081074B1A6FC2
:103B440042F004021A671A6F42F001021A67FFF783
:103B540085F9024D804641F288370FE00038024073
:103B640000004742800E4742600047420070004018
:103B7400FFF774F9A0EB0800B842DBD82B6F9B0762
:103B8400F6D5002E3FF418AF66E74A6856027FF573
:103B9400A4AE6BE72B4A2C4D1360FFF75FF9064682
:103BA40004E0FFF75BF9801B0228C3D82B68990750
:103BB400F7D42368E6E6244A136F43F0010313673E
:103BC400C5E7214B1A6842F480221A601A6842F44D
:103BD40080321A6090E7FFF741F9064604E0FFF7E8
:103BE4003DF9801B0228A5D82B689901F7D4E36915
:103BF400D4F820E0676AE66AA26A206B1349124C83
:103C040043EA0E0343EA871343EA0663520843EA8E
:103C14000073013A43EA024301226B600A60FFF732
:103C24001DF9054604E0FFF719F9401B022881D865
:103C340023689A01F7D5DCE64A6856023FF585AE5B
:103C440022E700BF000047420038024060004742BC
:103C5400002800F09880F8B590F83D30044603F051
:103C6400FF02002B66D023684849022284F83D20D5
:103C74008B421A6863D0B3F1804F72D0A1F57C41B6
:103C84008B422DD001F580618B4229D001F58061F2
:103C94008B4225D001F578418B4221D001F570513A
:103CA4008B4239D001F580618B4235D001F58061BA
:103CB4008B4231D0A1F598318B422DD001F5806132
:103CC4008B4229D001F580618B4225D0A569E0683B
:103CD400616822F080022A431A60D862996215E072
:103CE400A1682669A069E768656822F070020A4342
:103CF40022F440722649324322F0800202438B426E
:103D04001A60DF629D6201D162691A6301225A61FD
:103D1400002084F83D20F8BD2669A069E568616843
:103D240022F44072324322F0800202431A60DD62C0
:103D34009962EBE780F83C20FEF7BAF993E7A568AF
:103D44002069A16922F070022A4322F440720243DE
:103D540022F080020A431A60E268DA6262689A62B8
:103D6400D2E7A6682069A169E768656822F0700255
:103D7400324322F44072024322F080020A431A6062
:103D8400DF629D62C2E70120704700BF000001406E
:103D940000040140704700BF002800F09880F8B587
:103DA40090F83D30044603F0FF02002B66D02368F0
:103DB4004849022284F83D208B421A6863D0B3F14B
:103DC400804F72D0A1F57C418B422DD001F58061EA
:103DD4008B4229D001F580618B4225D001F57841D1
:103DE4008B4221D001F570518B4239D001F58061AD
:103DF4008B4235D001F580618B4231D0A1F59831E9
:103E04008B422DD001F580618B4229D001F5806170
:103E14008B4225D0A569E068616822F080022A43BC
:103E24001A60D862996215E0A1682669A069E768FA
:103E3400656822F070020A4322F440722649324334
:103E440022F0800202438B421A60DF629D6201D13C
:103E540062691A6301225A61002084F83D20F8BD8A
:103E64002669A069E568616822F44072324322F051
:103E7400800202431A60DD629962EBE780F83C201D
:103E8400FFF788FF93E7A5682069A16922F0700213
:103E94002A4322F44072024322F080020A431A6049
:103EA400E268DA6262689A62D2E7A6682069A16968
:103EB400E768656822F07002324322F440720243DC
:103EC40022F080020A431A60DF629D62C2E7012089
:103ED400704700BF000001400004014090F83C30EE
:103EE400012B47D0F0B50223012480F83C4080F830
:103EF4003D300C2A36D8DFE802F06C35353507350D
:103F04003535983535353F000368D1F808E01D6A2A
:103F14000F68744E25F010051D621A6A5D689C696D
:103F240022F0200224F4E644B34242EA0E1244EAA8
:103F3400072400F0BB8006F58066B34200F0B6802B
:103F44004E685D609C619E631A629C690D6944F4CD
:103F540000649C61996921F4806199619A6942EADB
:103F640005229A610023012280F83D2080F83C302C
:103F74001846F0BD022070470368D1F808E01D6AB6
:103F84000F68584E25F480551D621A6A5D68DC6915
:103F940022F4005224F4E644B34242EA0E3244EAE4
:103FA40007246ED006F58066B3426AD04E685D6021
:103FB400DC611E641A62DC690D6944F40064DC612E
:103FC400D96921F48061D961DA6942EA0522DA61AA
:103FD400C8E70368D1F808E01D6A0F68414E25F070
:103FE40001051D621A6A5D689C6922F0020224F0D0
:103FF4007304B34242EA0E0244EA070465D006F5AC
:104004008066B34261D04E685D609C615E631A62F3
:104014009C690D6944F008049C61996921F00401CC
:1040240099619A692A439A619CE70368D1F808E088
:104034001D6A0F682B4E25F480751D621A6A5D682F
:10404400DC6922F4007224F07304B34242EA0E22C3
:1040540044EA07041BD006F58066B34217D04E68C5
:104064005D60DC61DE631A62DC690D6944F008049A
:10407400DC61D96921F00401D961DA692A43DA6182
:1040840070E74E6925F4804545EA86158EE7CE68CB
:104094008F6922F4006242EA06224E6925F44055F3
:1040A4003E4322F4806245EA0615D8E7CE688F695C
:1040B40022F0800242EA06124E6925F440653E432E
:1040C40022F0400245EA86053AE7CE688F6922F07D
:1040D400080232434E6925F440753E4322F004023F
:1040E400354390E70000014090F83C20012A01D1BB
:1040F40002207047034602201A6870B483F83D001A
:1041040094684D680E6824F070042C4324F007046E
:1041140034430120502D83F83C0094604DD020D9C5
:10412400602D37D0702D0BD1C8688E680D699468E6
:1041340040EA060141EA052124F47F4001439160ED
:10414400D16821F04001D160D1680024012521F417
:104154008041D160204683F83D5083F83C4070BCD8
:104164007047402DECD1052E0DD0146A106A0D69EC
:1041740020F001001062916921F0F00141EA05117B
:1041840091611462DCE7002283F83D0083F83C204F
:1041940070BC7047146A8D680E6924F010041462B0
:1041A4009069116A20F4704021F0A00140EA0630C1
:1041B40041EA051190611162C2E7146A156A8868C0
:1041C4000E6925F001051562916924F00A0421F0B5
:1041D400F001204341EA061191611062B0E700BF8B
:1041E40090F83C20012A1AD070B40222046880F8A6
:1041F4003D2003466068A2680E684D6822F0800284
:1042040020F0700131432A430126002561602846CD
:10421400A26083F83D6083F83C5070BC7047022074
:10422400704700BF90F83C30012B21D0CA684B681E
:10423400F0B48F680E680D694C69C96922F4407244
:104244003A4322F48062134323F40063334323F498
:1042540080532B4323F40053234323F48043046803
:1042640000220B43636480F83C20F0BC1046704786
:1042740002231846704700BF2DE9F04704682269FD
:104284008246C068DAF81C10DAF80830DAF81060F0
:10429400DAF8145022F4405202432261E268DAF858
:1042A4001800334322F416422B4322F00C020B4332
:1042B4001343E360636923F440730343B1F5004F90
:1042C4006361AB4B61D09C4200F0018103F58063D4
:1042D4009C4200F0FC80FFF76DFAA64FDAF8043038
:1042E40000EB800000EB80009B00B0FBF3F3A7FB26
:1042F40003235B091D01FFF75DFADAF8043000EBD4
:1043040080009B0000EB8000B0FBF3F6FFF752FA4D
:10431400DAF8042000EB8000930000EB8000B0FB8F
:10432400F3F3A7FB03234FF064095B0909FB136351
:104334001B013233A7FB03235B0903F0F006FFF7ED
:1043440039FADAF8042000EB8000930000EB8000D7
:10435400B0FBF3F8FFF72EFADAF8043000EB800034
:104364009B0000EB8000B0FBF3F0A7FB003040099A
:1043740009FB10831B013233A7FB0323C3F343134D
:1043840033432B44A360BDE8F0879C425DD003F522
:1043940080639C4259D0FFF70DFA764FDAF8043067
:1043A40000EB800000EB80005B00B0FBF3F3A7FBA5
:1043B40003235B091E01FFF7FDF9DAF8043000EB73
:1043C40080005B0000EB8000B0FBF3F5FFF7F2F92F
:1043D400DAF8042000EB8000530000EB8000B0FB0F
:1043E400F3F3A7FB03235B094FF0640909FB1353A1
:1043F400DB003233A7FB03231B0903F4F875FFF733
:10440400D9F9DAF8042000EB800000EB80005300B7
:10441400B0FBF3F8FFF7CEF9DAF8043000EB8000D4
:1044240000EB80005B00B0FBF3F3A7FB03235B0905
:1044340009FB1383DB003233A7FB0323C3F34213CB
:1044440033442B44A360BDE8F087FFF7C3F9494F19
:10445400DAF8043000EB800000EB80005B00B0FB76
:10446400F3F3A7FB03235B091E01FFF7B3F9DAF8A3
:10447400043000EB80005B0000EB8000B0FBF3F540
:10448400FFF7A8F9DAF8042000EB8000530000EBF2
:104494008000B0FBF3F3A7FB03234FF064095B092F
:1044A40009FB1353DB003233A7FB03231B0903F47B
:1044B400F875FFF78FF9DAF8042000EB8000530059
:1044C40000EB8000B0FBF3F8FFF784F9A4E7FFF7F3
:1044D40081F9284FDAF8043000EB800000EB80000B
:1044E4009B00B0FBF3F3A7FB03235B091D01FFF75C
:1044F40071F9DAF8043000EB80009B0000EB8000D7
:10450400B0FBF3F6FFF766F9DAF8042000EB80005D
:10451400930000EB8000B0FBF3F3A7FB03234FF001
:1045240064095B0909FB13631B013233A7FB0323F3
:104534005B0903F0F006FFF74DF9DAF8042000EB0D
:104544008000930000EB8000B0FBF3F8FFF742F922
:10455400DAF8043000EB800000EB80009B00B0FB35
:10456400F3F3A7FB03235B0909FB138302E700BFF3
:10457400001001401F85EB5160B338B590F8393015
:10458400044603F0FF0203B32268242384F839307D
:10459400D36823F40053D3602046FFF76DFE2368ED
:1045A4001A6922F490421A615A6922F02A025A6165
:1045B400DA680025202142F40052DA602846E563D7
:1045C40084F8391084F83A1038BD80F83820FDF7A3
:1045D400D3FDD9E701207047C0887047C38840885D
:1045E40003FB00F0000C704710B40B14028809B2EE
:1045F40003FB03F402FB02F201FB0144944285B085
:1046040019D990F8B020C2EB1464E4B200EB440072
:10461400428802FB01F1002902FB03F3BCBF01F550
:10462400FF417F31002BBCBF03F5FF437F3341F3D0
:10463400CF3143F3CF3389B200209BB261F30F0033
:1046440063F31F4005B05DF8044B704700234382B9
:104654000375437580F8963080F8973080F8983069
:1046640080F8993080F89A3080F81B3180F81C313A
:1046740080F81D31704700BF18B180E80E00009B20
:10468400C3607047A8B110B444780378234454B18C
:10469400013CE4B202340444421C12F8011F0B44EE
:1046A40094429BB2F9D15DF8044B03EB132303F05E
:1046B400FF00704710B400240473C0F80E40C48295
:1046C400047680E80E005DF8044B70470123C18135
:1046D400C282037303764376704700BF30B400236D
:1046E40002250124057304760182C282437630BC1C
:1046F400704700BF10B401220324002383B0C0F824
:10470400121004730276437603B05DF8044B7047CD
:1047140010B503210446006801F0C2FD08B101236D
:10472400237610BD0068072101F0BABD006801F0CE
:1047340059BE00BF0068012101F0B2BD10B1037E73
:10474400012B00D07047017B022910B504460FD01D
:10475400032904D001291DD00323237610BD8268C8
:10476400D0F81210116182F824300223237610BD90
:1047740083684068002183F8241001F0E3FCE28A96
:10478400B4F91010606801F0E1FC0028EDD10323B6
:10479400237610BD83684068002283F8242001F04A
:1047A400D1FCE28AB4F90E10606801F0CFFC002855
:1047B400EDD0DAE7006801F013BE00BF407E704719
:1047C400037B022B15D0032B0BD0012B01D001202E
:1047D4007047B0F90E30002BACBF01204FF0FF3012
:1047E4007047B0F91230002BACBF01204FF0FF30FE
:1047F4007047B0F91030002BACBF01204FF0FF30F0
:10480400704700BF037B012B0CBFB0F90E000020E2
:10481400704700BF406801F021BD00BF08B5406883
:1048240001F07EFCBDE8084001F02ABC406801F0BC
:1048340081BC00BF8368186883B263F30F0082B041
:1048440002B070478368586883B263F30F0082B084
:1048540002B070478368D86883B263F30F0082B0F4
:1048640002B070478368186983B263F30F0082B0A3
:1048740002B070478368D3F8160083B263F30F0065
:1048840082B002B0704700BF8368D3F81A0083B2C5
:1048940063F30F0082B002B0704700BF8368B3F9BE
:1048A4001E0070478368598299827047034610B589
:1048B40040689C6801F0DAFCC0F30F4320826382F5
:1048C40010BD00BF44F6E61102B2030C12FB01F066
:1048D40013FB01F34042A0EB4300C013B0F5004FBB
:1048E40084B004DA10F5004F0CDA084B01E047F607
:1048F400FF7392B200209BB262F30F0063F31F4078
:1049040004B0704703B2F4D1004BF2E70180FFFF1B
:1049140030B401F50041C1F3891101F44072B2F5DC
:10492400807F05B284B04FEA204055D043D9B2F518
:10493400007F31D0B2F5407F09D1C9B22C4ACB43B4
:1049440032F81140DBB2644232F9133024B205FB71
:1049540004F200FB1322D213B2F5004F28DA12F549
:10496400004F37DB12B235D004FB00F405FB0343E0
:10497400DB13B3F5004F18DA13F5004F01DB1BB25C
:1049840000D11C4B92B200209BB262F30F0063F380
:104994001F4004B030BC7047C9B2CB43DBB2144AE9
:1049A40032F9134032F91130D1E747F6FF73E9E7E2
:1049B40047F6FF72D8E7002AC9D1C9B2CB43DBB2AC
:1049C4000B4A32F8134032F8113064425B4224B28D
:1049D4001BB2BCE7074AC7E7C9B2CB43044ADBB200
:1049E40032F9114032F813305B421BB2AFE700BF1B
:1049F400D87100080180FFFF30B401F50041C1F314
:104A0400891101F44072B2F5807F05B284B04FEA97
:104A140020403CD02CD9B2F5007F20D0B2F5407FA5
:104A240009D1C9B21F4ACB4332F81140DBB2644208
:104A340032F9133024B200FB03F205FB042204FB19
:104A440000F005FB1303C2F3CF320020C3F3CF33CE
:104A540062F30F0063F31F4004B030BC7047C9B267
:104A6400CB43DBB20F4A32F9134032F91130E2E79B
:104A7400002AE0D1C9B2CB43DBB20A4A32F8134070
:104A840032F811206442524224B213B2D3E7C9B2BD
:104A9400CB43DBB2034C34F8132034F911405242B7
:104AA40013B2C8E7D871000800F50040C0F38910BC
:104AB40000F44071B1F5807F82B031D021D9B1F5D5
:104AC400007F15D0B1F5407F09D1C0B21A49C34364
:104AD40031F81020DBB2524231F9133012B292B2E3
:104AE40000209BB262F30F0063F31F4002B07047D3
:104AF400C0B2C343DBB2104931F9132031F910308D
:104B0400EDE70029EBD1C0B2C343DBB20A4931F867
:104B1400132031F8103052425B4212B21BB2DEE76E
:104B2400C0B2C343044ADBB232F8133032F9102066
:104B34005B421BB2D3E700BFD871000810B54FF435
:104B440080720446002102F0FBFA0023C4F800310D
:104B540010BD00BFB0F80021531C9BB27F2B88BF4F
:104B6400002330B420F8121000F1FE05A0F8022151
:104B7400A0F800310022831E33F9024FAB422244D5
:104B8400FAD1002AB8BF7F32D211A0F8042130BC78
:104B940008467047B0F90401704700BF38B505787E
:104BA40025B10022438AC282038238BD0446043000
:104BB400FDF7AAF884F82600258238BD03781BB1D6
:104BC4000023C3821846704710B5044690F82600A7
:104BD400FDF740F94FF6FF73984214D0228B238AD5
:104BE400511E01FB0303B3FBF2F39BB22382628BDE
:104BF4009A4205D3A28B9A4207D8E08AE08210BD7C
:104C04000820E08210BD238AF1E70020F6E700BF08
:104C1400037813B1808A00B27047038A016AB0F93D
:104C24001E20808C5B1A03FB02F3002BBCBF03F530
:104C34007F43FF3300EB234000B270470023016839
:104C4400028C416042848360836270478180704734
:104C5400C1807047B0F90400704700BFB0F9060086
:104C6400704700BF81607047008B7047408B70476E
:104C740041847047B0F92200704700BFB0F90420A6
:104C8400B0F9063070B401FB02F2B0F91440B0F987
:104C9400165063B1866801FB03F18B191DD4002EF5
:104CA40026DBC1688B4203DC01698B4200DB1946B9
:104CB400868BC38B324141FA03F31344A34209DCCC
:104CC400AB42B6BFEA1A00222B461144816070BC85
:104CD40018B27047E21A2346F7E7002EE1DD0029F7
:104CE400DFDDC1686FF000439942E1D10B46DEE796
:104CF400024E33EA210328BF3346D2E70100008085
:104D0400D0F80C21118BD38970B506469589D28AC7
:104D1400D0F81001D6F8084113FB01F315FB023556
:104D2400FFF75CFC002D0F4B0F4904FB00F0B8BFEC
:104D340005F57F4583FB0023B8BFFF35C0172D144D
:104D4400C0EBA31303FB05F303EB43035B0081FBFD
:104D54000321DB173046C3EBA141BDE87040FFF7E8
:104D6400F9BE00BFB5814E1B67666666174B1A6CA9
:104D7400D20714D54FF080435A68596821F0700166
:104D840041F020015960596941F0010159615968A4
:104D940002F0700221F070010A435A6070471A6CE5
:104DA40042F001021A641A6C82B04FF0804102F0A2
:104DB40001020192019A4A6942F001024A611A6CA5
:104DC40022F001021A6402B0704700BF00380240AA
:104DD4004368184770B4B0F86060B0F844300C14FD
:104DE40083B006FB04F40191C4EBC47409B26400FB
:104DF40003FB01F1631A214401EBD17503EBD37278
:104E04006D104FEA62024FD4002AC0F28C80AD1AB2
:104E140044BF05F57F3505F2FF35002BBCBF03F514
:104E24007F3303F2FF3300294FF00104B8BF01F5CB
:104E34007F314FEA960202EBA542A0F84640B8BF84
:104E440001F2FF31C46902EBA343A2EBA141B0F824
:104E54005C5092B29BB289B2012DA0F84820A0F810
:104E64004A30A0F84C101BD1B0F95650B0F9586034
:104E7400002DB0F85E50CCBF5219521B92B2A0F86C
:104E84004820B0F95A20002ECCBF5B195B1B002AC6
:104E94009BB2CCBF4919491BA0F84A30A0F84C106A
:104EA400234603B070BC1847002A1BDB002C59DDD5
:104EB4002D1B44BF05F57F3505F2FF350029B8BF2A
:104EC40001F57F314FEA960202EBA542B8BF01F229
:104ED400FF310223A2EBA141A0F8463001EB644369
:104EE400046AB4E7AD1A44BF05F57F3505F2FF3512
:104EF400002BBCBF03F57F3303F2FF330029B8BF97
:104F040001F57F314FEA96024FF0040402EBA5420B
:104F1400B8BF01F2FF31A0F8464002EBA343A2EB75
:104F2400A141846A93E7002C3DDD002BB8BF03F553
:104F34007F334FF00001A4EB0205B8BF03F2FF3347
:104F4400B208A0F84610211EB8BF01F5FF3102EBEC
:104F5400A54202EBA343B8BF01F2FF118469A3EB9E
:104F6400614174E7A51A44BF05F57F3505F2FF35A5
:104F7400002BB8BF03F57F334FF00301B8BF03F232
:104F8400FF33A0F84610B208211EB8BF01F5FF3167
:104F940002EBA54202EBA343B8BF01F2FF11A3EB5E
:104FA4006141446A53E70029B8BF01F57F314FF0EE
:104FB4000503A5EB0405B8BF01F2FF31B208A0F860
:104FC4004630231EB8BF03F5FF3302EBA542A2EB24
:104FD400A141B8BF03F2FF1301EB6343C46A36E790
:104FE4008368184710B5044682B099B1012902D0EC
:104FF400002002B010BDB0F85230C3B1013B9BB2E7
:10500400A0F85230002BF3D103690191984701991C
:105014000846EEE783689847B4F86230A4F8523043
:10502400002BE5D12046236998470120E1E7084693
:1050340002B010BD036B1847D0F890309B6870B471
:105044005B0190F8464003F184430022052CC3F829
:10505400302480F8822046D80123A34013F0210F86
:1050640020D113F0060F4ED0574BC26EDD6B574B59
:10507400A2EB45059D427FDA1D460B801E4648F291
:105084000103534A446FD26BC4EB4202521BB2F584
:10509400004F7BDA4D4DAA42C0F2848015B24D8098
:1050A40092B226E0484B046FDB6B484AA4EB4304FE
:1050B40094424DDBB4F5004F5ADB47F6FF731A46B2
:1050C4004B801C461D46424E436FF66BC3EB4603B2
:1050D4001C1BB4F5004F41DA3C4EB44244DA0E8056
:1050E40048F2010305E0B1F90060B1F90250B3B22E
:1050F400AAB213445B42A0F85660A0F85850A0F836
:105104005A3070BC704713F0180FECD02E4AC36E9F
:10511400D46B2E4AA3EB4403934241DBB3F5004F17
:10512400A8BF47F6FF730B80294B026FDB6B274D3B
:10513400A2EB4302AA4239DBB2F5004F3DDBB1F9E1
:10514400006047F6FF734B801A461D46B3B2D0E7A2
:1051540014464A80154648F20102B4E747F6FF7444
:1051640023460C802646C4E726B20E80A3B2C0E7CD
:1051740025B24D80A2B2A6E7B5F5004F0CDB47F689
:10518400FF7213460A80154616467AE747F6FF74FF
:1051940022464C802546ACE72EB20E80ABB270E7B7
:1051A4000A80C1E74D8048F20102A2E7B1F900602C
:1051B4004D80B3B248F201029BE7B1F9006015B229
:1051C400B3B24D8092B294E7002001400180FFFF0A
:1051D40000210140D0F890309B685B0103F18443C7
:1051E4000022C3F8302480F8822090F883300F2BFB
:1051F40017D802F1804202F5903230B4C36ED56BF9
:10520400094C026F2B44C366E46B90F8833001337E
:10521400DBB2224480F883300023026730BC0B6089
:10522400704700230B60704700210140D0F8903094
:105234009B685B0103F184430022C3F8302480F8A7
:10524400822090F88330072B15D802F1804202F5B2
:1052540090320A4B30B4D46BDD6B90F88330426FDC
:1052640001332C44DBB2224480F8833000234267AC
:1052740030BC0B60704700230B6070470021014075
:10528400D0F8901001238A6880F8503000236FF022
:105294000100106153639363D3631369DB07FCD587
:1052A400536C087D43F40043022853640AD170B45C
:1052B400086A8D69CE694C6A8B6ACA6AAE61846178
:1052C40070BC9A61704700BF70B41F4DD0F8902035
:1052D40029681E4C936821F00C01002680F8506068
:1052E40029602168107D21F00C016FF00105216017
:1052F4001D61D96841F00101D960596C022841F45B
:105304000041596401D070BC7047196A40F255538A
:1053140019420DD1D069516AD36A9669156A946AA3
:10532400000409041B04B061A961A36170BC704747
:105334009469116A936AD569506AD26AA5618861D1
:1053440070BC9A61704700BF0020014000210140F9
:10535400D0F890108B68002280F85020DA6822F090
:105364000102DA601A6A4FF6AA2002401A6202E0C9
:10537400DA68D20702D41A69D007F9D55A6C087DC5
:1053840022F4004202285A6406D01A6A42F4AA623D
:1053940042F005021A627047F0B4486ACC69CA6ADE
:1053A4008F690E6A8D6A240412040004BC61B06122
:1053B400AA611A6A42F4AA6242F005021A62F0BCB7
:1053C400704700BF00230D4A80F88230036FD06B12
:1053D4000B4AA3EB400393420CDB47F6FE72934265
:1053E40004DD47F6FF730B804B8070471BB20B80C4
:1053F4004B807047034B0B804B807047002001406B
:105404000280FFFF0180FFFFD0F890108A6800201F
:105414006FF00103506313611369DB07FCD5536C10
:10542400087D43F40043022853640CD130B44A6A23
:105434008D690C6ACB6A886AC969A9611204A26180
:1054440030BC1B0483617047D0F890108B686FF0F8
:105454000102F0B51A611A69D407FCD5B0F88020AE
:105464006FF00105053A01241D615C631A641A6931
:10547400D207FCD55A6C0C7D42F40042022C5A64CB
:1054840012D0194C194AD0F88850A56095601D6A4D
:10549400D0F8846045F480551D62A66096604B790F
:1054A400DB03A3639363F0BD1C6A40F255521442BC
:1054B4000ED1CA6ACE694C6A0D6A8F6A4FEA024EEF
:1054C4008A69360424049661AC61C7F818E0D8E709
:1054D400CA6A8E690D6A8C6ACF69B76112044E6A12
:1054E400AE61A261CDE700BF002001400021014070
:1054F400D0F890108B681A6822F0010210B491F869
:1055040030401A609A6942F008029A619A6942F43A
:1055140000629A61DA6942F00802DA61DA6942F4F7
:105524000062DA6134B16FF080021A61DA6842F025
:105534008002DA605A6942F001025A618A78022ACA
:1055440038D090F854201AB9B0F88020013A5A6241
:105554002F4A304C30499342304BE26837D042F006
:105564000202E2609A6842F001029A608A686FF06F
:10557400040442F001028A601C605A6842F080020E
:105584005A60DA6A22F47002DA629B6823F47C13AC
:1055940043F4F012C0F88830C0F884200023B0F837
:1055A400642080F88C30A0F85C30A0F85E205DF8B0
:1055B400044B7047CA78012AC6D1897B0329C3D119
:1055C4001A635A6942F001025A611963BCE742F056
:1055D4000102E2609A6842F001029A608A686FF000
:1055E400040442F001028A601C605A6842F080029E
:1055F4005A60DA6A22F47002DA629B6823F47C133C
:1056040043F48012C0F88830C0F88420C6E700BF95
:1056140000000140002004E000210140002001407E
:10562400D0F89020F8B59568334E002380F8833085
:10563400296AC3664EF6AA2739400367436729627D
:1056440046601379DB0383675379DB03C36704463E
:10565400FFF73AFE102294F883300F2B08D8EB683A
:10566400D907F8D484F8832094F883300F2BF6D923
:10567400224AD4F890306260002184F883109B7928
:10568400DB03A367E3672046FFF71EFE102294F8AE
:105694008330072B08D8EB68DB07F8D484F8832021
:1056A40094F88330072BF6D9AB69E66E206F616FEF
:1056B400134A62604FF2F777C9083B40F608C00806
:1056C4006167E6662067AB61EA69B4F880303A4006
:1056D400EA616B63AB63EB63AA6940F608010A43B2
:1056E400AA61EB690B43EB612B6A43F4AA6343F0B1
:1056F40005032B62F8BD00BFD951000831520008E0
:105704003D500008F0B5B0F88010D0F89040B0F8E3
:105714004870D0F88460238AA568CA1B92B226F424
:1057240040169A42C0F884601ED90323A0F846307C
:105734002379B0F84AE0DB03836762794B1ED20316
:10574400C2679BB24FF48012B0F84C103243C0F8D9
:1057540084202B646F63C5F838E0E96390F8820015
:10576400003018BF0120F0BDB0F84AE0A7EB0E0CE2
:105774001FFA8CFCBCEB420F0BD9638AFB1A9BB259
:105784004FF480126179C9038167A179C903C167A4
:10579400DAE73B449BB2994206D8DB4303EB41036F
:1057A4009BB24FF40012EDE74FF48012EAE700BF1A
:1057B400F0B5B0F88010D0F89040B0F84A70D0F846
:1057C4008460238AA568CA1B92B226F440169A42C2
:1057D400C0F884601ED90323A0F846302379B0F8BA
:1057E40048E0DB03836762794B1ED203C2679BB236
:1057F4004FF48012B0F84C103243C0F884202B646C
:10580400C5F834E0AF63E96390F88200003018BF54
:105814000120F0BDB0F848E0A7EB0E0C1FFA8CFC99
:10582400BCEB420F0BD9638AFB1A9BB24FF4801274
:105834002179C9038167A179C903C167DAE73B44C8
:105844009BB2994206D8DB4303EB41039BB24FF46E
:105854000012EDE74FF48012EAE700BFF0B5B0F8AC
:105864008010D0F89040B0F84A70D0F88460238A51
:10587400A568CA1B92B226F440169A42C0F8846006
:105884001ED90323A0F846302379B0F84CE0DB039B
:10589400836762794B1ED203C2679BB24FF48012B6
:1058A400B0F848103243C0F884202B646963AF63B6
:1058B400C5F83CE090F88200003018BF0120F0BD2C
:1058C400B0F84CE0A7EB0E0C1FFA8CFCBCEB420FBB
:1058D4000BD9638AFB1A9BB24FF480122179C90356
:1058E4008167A179C903C167DAE73B449BB2994256
:1058F40006D8DB4303EB41039BB24FF40012EDE700
:105904004FF48012EAE700BFF0B5B0F88010D0F889
:105914009040B0F84C70D0F88460238AA568CA1B04
:1059240092B226F440169A42C0F884601ED903232A
:10593400A0F846302379B0F84AE0DB038367627944
:105944004B1ED203C2679BB24FF48012B0F84810CA
:105954003243C0F884202B646963C5F838E0EF63F0
:1059640090F88200003018BF0120F0BDB0F84AE082
:10597400A7EB0E0C1FFA8CFCBCEB420F0BD9638A0D
:10598400FB1A9BB24FF480122179C90381676179B4
:10599400C903C167DAE73B449BB2994206D8DB43AB
:1059A40003EB41039BB24FF40012EDE74FF4801276
:1059B400EAE700BFF0B5B0F88010D0F89040B0F836
:1059C4004C70D0F88460238AA568CA1B92B226F46E
:1059D40040169A42C0F884601ED90323A0F84630CA
:1059E4002379B0F848E0DB03836762794B1ED20366
:1059F400C2679BB24FF48012B0F84A103243C0F829
:105A040084202B64C5F834E0A963EF6390F8820026
:105A1400003018BF0120F0BDB0F848E0A7EB0E0C31
:105A24001FFA8CFCBCEB420F0BD9638AFB1A9BB2A6
:105A34004FF480122179C90381676179C903C16771
:105A4400DAE73B449BB2994206D8DB4303EB4103BC
:105A54009BB24FF40012EDE74FF48012EAE700BF67
:105A6400F0B5B0F88010D0F89040B0F84870D0F895
:105A74008460238AA568CA1B92B226F440169A420F
:105A8400C0F884601ED90323A0F846302379B0F807
:105A94004CE0DB03836762794B1ED203C2679BB27F
:105AA4004FF48012B0F84A103243C0F884202B64BB
:105AB4006F63A963C5F83CE090F88200003018BF1A
:105AC4000120F0BDB0F84CE0A7EB0E0C1FFA8CFCE3
